{
  "contractName": "LendMyNFT",
  "abi": [
    {
      "inputs": [],
      "stateMutability": "nonpayable",
      "type": "constructor"
    },
    {
      "anonymous": false,
      "inputs": [
        {
          "indexed": false,
          "internalType": "address",
          "name": "Borrower",
          "type": "address"
        },
        {
          "indexed": false,
          "internalType": "address",
          "name": "Liquidator",
          "type": "address"
        },
        {
          "indexed": false,
          "internalType": "uint256",
          "name": "LoanId",
          "type": "uint256"
        },
        {
          "indexed": false,
          "internalType": "uint32",
          "name": "Time",
          "type": "uint32"
        }
      ],
      "name": "Liquidate",
      "type": "event"
    },
    {
      "anonymous": false,
      "inputs": [
        {
          "indexed": false,
          "internalType": "address",
          "name": "Borrower",
          "type": "address"
        },
        {
          "indexed": false,
          "internalType": "uint256",
          "name": "LoanId",
          "type": "uint256"
        }
      ],
      "name": "Loans",
      "type": "event"
    },
    {
      "anonymous": false,
      "inputs": [
        {
          "indexed": true,
          "internalType": "address",
          "name": "oldOwner",
          "type": "address"
        },
        {
          "indexed": true,
          "internalType": "address",
          "name": "newOwner",
          "type": "address"
        }
      ],
      "name": "OwnerSet",
      "type": "event"
    },
    {
      "anonymous": false,
      "inputs": [
        {
          "indexed": false,
          "internalType": "address",
          "name": "Borrower",
          "type": "address"
        },
        {
          "indexed": false,
          "internalType": "uint256",
          "name": "LoanId",
          "type": "uint256"
        },
        {
          "indexed": false,
          "internalType": "uint32",
          "name": "Time",
          "type": "uint32"
        }
      ],
      "name": "RePay",
      "type": "event"
    },
    {
      "inputs": [
        {
          "internalType": "address",
          "name": "newOwner",
          "type": "address"
        }
      ],
      "name": "changeOwner",
      "outputs": [],
      "stateMutability": "nonpayable",
      "type": "function"
    },
    {
      "inputs": [],
      "name": "getOwner",
      "outputs": [
        {
          "internalType": "address",
          "name": "",
          "type": "address"
        }
      ],
      "stateMutability": "view",
      "type": "function"
    },
    {
      "inputs": [],
      "name": "nft",
      "outputs": [
        {
          "internalType": "contract IERC721",
          "name": "",
          "type": "address"
        }
      ],
      "stateMutability": "view",
      "type": "function"
    },
    {
      "inputs": [
        {
          "internalType": "uint8",
          "name": "_rate",
          "type": "uint8"
        }
      ],
      "name": "setInterestRate",
      "outputs": [],
      "stateMutability": "nonpayable",
      "type": "function"
    },
    {
      "inputs": [],
      "name": "viewInterestRate",
      "outputs": [
        {
          "internalType": "uint8",
          "name": "",
          "type": "uint8"
        }
      ],
      "stateMutability": "view",
      "type": "function"
    },
    {
      "inputs": [
        {
          "internalType": "contract IERC721",
          "name": "_nft",
          "type": "address"
        },
        {
          "internalType": "uint256",
          "name": "_tokenId",
          "type": "uint256"
        },
        {
          "internalType": "uint256",
          "name": "_price",
          "type": "uint256"
        },
        {
          "internalType": "uint32",
          "name": "_endTime",
          "type": "uint32"
        }
      ],
      "name": "borrow",
      "outputs": [
        {
          "internalType": "uint256",
          "name": "LoanId",
          "type": "uint256"
        }
      ],
      "stateMutability": "nonpayable",
      "type": "function"
    },
    {
      "inputs": [
        {
          "internalType": "uint256",
          "name": "_loanId",
          "type": "uint256"
        }
      ],
      "name": "viewLoan",
      "outputs": [
        {
          "internalType": "uint32",
          "name": "",
          "type": "uint32"
        },
        {
          "internalType": "uint256",
          "name": "",
          "type": "uint256"
        },
        {
          "internalType": "uint256",
          "name": "",
          "type": "uint256"
        },
        {
          "internalType": "bool",
          "name": "",
          "type": "bool"
        }
      ],
      "stateMutability": "view",
      "type": "function"
    },
    {
      "inputs": [
        {
          "internalType": "uint256",
          "name": "_loanId",
          "type": "uint256"
        }
      ],
      "name": "rePay",
      "outputs": [],
      "stateMutability": "nonpayable",
      "type": "function"
    },
    {
      "inputs": [],
      "name": "assignAllNPA",
      "outputs": [],
      "stateMutability": "nonpayable",
      "type": "function"
    },
    {
      "inputs": [
        {
          "internalType": "uint256",
          "name": "_noOffResults",
          "type": "uint256"
        }
      ],
      "name": "listNPA",
      "outputs": [
        {
          "internalType": "uint256[]",
          "name": "",
          "type": "uint256[]"
        }
      ],
      "stateMutability": "view",
      "type": "function"
    },
    {
      "inputs": [
        {
          "internalType": "uint256",
          "name": "_loanId",
          "type": "uint256"
        }
      ],
      "name": "liquidateNPA",
      "outputs": [],
      "stateMutability": "nonpayable",
      "type": "function"
    }
  ],
  "bytecode": "0x608060405234801561001057600080fd5b50336000806101000a81548173ffffffffffffffffffffffffffffffffffffffff021916908373ffffffffffffffffffffffffffffffffffffffff16021790555060008054906101000a900473ffffffffffffffffffffffffffffffffffffffff1673ffffffffffffffffffffffffffffffffffffffff16600073ffffffffffffffffffffffffffffffffffffffff167f342827c97908e5e2f71151c08502a66d44b6f758e3ac2f1de95f02eb95f0a73560405160405180910390a373eb8f08a975ab53e34d8a0330e0d34de942c95926600260006101000a81548173ffffffffffffffffffffffffffffffffffffffff021916908373ffffffffffffffffffffffffffffffffffffffff160217905550600a600260146101000a81548160ff021916908360ff1602179055506122188061014c6000396000f3fe608060405234801561001057600080fd5b50600436106100a95760003560e01c806366ffb6b41161007157806366ffb6b41461016457806369aed07e1461016e578063893d20e81461018c578063a6f9dae1146101aa578063d028aa62146101c6578063df33d72f146101f9576100a9565b806309dbb5f1146100ae57806329fd461d146100de57806347ccca02146100fa5780634aa4807d146101185780635069dfd114610134575b600080fd5b6100c860048036038101906100c391906117e5565b610215565b6040516100d59190611cab565b60405180910390f35b6100f860048036038101906100f39190611848565b61067e565b005b610102610ab7565b60405161010f9190611bb0565b60405180910390f35b610132600480360381019061012d9190611848565b610add565b005b61014e60048036038101906101499190611848565b610f1e565b60405161015b9190611b8e565b60405180910390f35b61016c61104c565b005b61017661111a565b6040516101839190611d0b565b60405180910390f35b610194611131565b6040516101a19190611a97565b60405180910390f35b6101c460048036038101906101bf919061176a565b61115a565b005b6101e060048036038101906101db9190611848565b6112a5565b6040516101f09493929190611cc6565b60405180910390f35b610213600480360381019061020e919061189a565b611333565b005b60006102228585856113df565b60006064604660056000888152602001908152602001600020600101546102499190611df7565b6102539190611dc6565b905080600260009054906101000a900473ffffffffffffffffffffffffffffffffffffffff1673ffffffffffffffffffffffffffffffffffffffff166370a08231306040518263ffffffff1660e01b81526004016102b19190611a97565b60206040518083038186803b1580156102c957600080fd5b505afa1580156102dd573d6000803e3d6000fd5b505050506040513d601f19601f820116820180604052508101906103019190611871565b1015610342576040517f08c379a000000000000000000000000000000000000000000000000000000000815260040161033990611bcb565b60405180910390fd5b600160009054906101000a900473ffffffffffffffffffffffffffffffffffffffff1673ffffffffffffffffffffffffffffffffffffffff166323b872dd3330886040518463ffffffff1660e01b81526004016103a193929190611ab2565b600060405180830381600087803b1580156103bb57600080fd5b505af11580156103cf573d6000803e3d6000fd5b50505050600260009054906101000a900473ffffffffffffffffffffffffffffffffffffffff1673ffffffffffffffffffffffffffffffffffffffff1663a9059cbb33836040518363ffffffff1660e01b8152600401610430929190611b2e565b602060405180830381600087803b15801561044a57600080fd5b505af115801561045e573d6000803e3d6000fd5b505050506040513d601f19601f8201168201806040525081019061048291906117bc565b506003600081548092919061049690611f20565b91905055506040518060e001604052803373ffffffffffffffffffffffffffffffffffffffff1681526020014263ffffffff1681526020018463ffffffff168152602001600260149054906101000a900460ff1660ff1681526020018281526020018681526020016001151581525060066000600354815260200190815260200160002060008201518160000160006101000a81548173ffffffffffffffffffffffffffffffffffffffff021916908373ffffffffffffffffffffffffffffffffffffffff16021790555060208201518160000160146101000a81548163ffffffff021916908363ffffffff16021790555060408201518160000160186101000a81548163ffffffff021916908363ffffffff160217905550606082015181600001601c6101000a81548160ff021916908360ff1602179055506080820151816001015560a0820151816002015560c08201518160030160006101000a81548160ff021916908315150217905550905050600060076000600354815260200190815260200160002060006101000a81548160ff0219169083151502179055507f58aaf6fd826d20f9c28a617c8af86aeb6d950a2a3608348c2143d5cebf4aeeb933600354604051610668929190611b2e565b60405180910390a1600354915050949350505050565b6007600082815260200190815260200160002060009054906101000a900460ff16806106af57506106ae816115f1565b5b6106ee576040517f08c379a00000000000000000000000000000000000000000000000000000000081526004016106e590611c4b565b60405180910390fd5b6006600082815260200190815260200160002060030160009054906101000a900460ff16610751576040517f08c379a000000000000000000000000000000000000000000000000000000000815260040161074890611c8b565b60405180910390fd5b60006006600083815260200190815260200160002060000160149054906101000a900463ffffffff16426107859190611e51565b9050600063bbf81e008263ffffffff1660066000868152602001908152602001600020600001601c9054906101000a900460ff1660ff1660066000878152602001908152602001600020600101546107dd9190611df7565b6107e79190611df7565b6107f19190611dc6565b60066000858152602001908152602001600020600101546108129190611d70565b9050600260009054906101000a900473ffffffffffffffffffffffffffffffffffffffff1673ffffffffffffffffffffffffffffffffffffffff166323b872dd3330846040518463ffffffff1660e01b815260040161087393929190611ab2565b602060405180830381600087803b15801561088d57600080fd5b505af11580156108a1573d6000803e3d6000fd5b505050506040513d601f19601f820116820180604052508101906108c591906117bc565b506005600084815260200190815260200160002060000160009054906101000a900473ffffffffffffffffffffffffffffffffffffffff16600160006101000a81548173ffffffffffffffffffffffffffffffffffffffff021916908373ffffffffffffffffffffffffffffffffffffffff160217905550600160009054906101000a900473ffffffffffffffffffffffffffffffffffffffff1673ffffffffffffffffffffffffffffffffffffffff166323b872dd303360066000888152602001908152602001600020600201546040518463ffffffff1660e01b81526004016109b293929190611ab2565b600060405180830381600087803b1580156109cc57600080fd5b505af11580156109e0573d6000803e3d6000fd5b5050505060006006600085815260200190815260200160002060030160006101000a81548160ff02191690831515021790555060006007600085815260200190815260200160002060006101000a81548160ff0219169083151502179055507f9957a07e04698772a819dae91cc1477a3e3b2af743acf0a56ebd59e3f2054bd16006600085815260200190815260200160002060000160009054906101000a900473ffffffffffffffffffffffffffffffffffffffff16338542604051610aaa9493929190611ae9565b60405180910390a1505050565b600160009054906101000a900473ffffffffffffffffffffffffffffffffffffffff1681565b6006600082815260200190815260200160002060000160189054906101000a900463ffffffff1663ffffffff164210610b4b576040517f08c379a0000000000000000000000000000000000000000000000000000000008152600401610b4290611beb565b60405180910390fd5b6006600082815260200190815260200160002060000160009054906101000a900473ffffffffffffffffffffffffffffffffffffffff1673ffffffffffffffffffffffffffffffffffffffff163373ffffffffffffffffffffffffffffffffffffffff1614610bb957600080fd5b6006600082815260200190815260200160002060030160009054906101000a900460ff16610c1c576040517f08c379a0000000000000000000000000000000000000000000000000000000008152600401610c1390611c8b565b60405180910390fd5b6005600082815260200190815260200160002060000160009054906101000a900473ffffffffffffffffffffffffffffffffffffffff16600160006101000a81548173ffffffffffffffffffffffffffffffffffffffff021916908373ffffffffffffffffffffffffffffffffffffffff16021790555060006006600083815260200190815260200160002060000160149054906101000a900463ffffffff1642610cc79190611e51565b9050600063bbf81e008263ffffffff1660066000868152602001908152602001600020600001601c9054906101000a900460ff1660ff166006600087815260200190815260200160002060010154610d1f9190611df7565b610d299190611df7565b610d339190611dc6565b6006600085815260200190815260200160002060010154610d549190611d70565b9050600260009054906101000a900473ffffffffffffffffffffffffffffffffffffffff1673ffffffffffffffffffffffffffffffffffffffff166323b872dd3330846040518463ffffffff1660e01b8152600401610db593929190611ab2565b602060405180830381600087803b158015610dcf57600080fd5b505af1158015610de3573d6000803e3d6000fd5b505050506040513d601f19601f82011682018060405250810190610e0791906117bc565b50600160009054906101000a900473ffffffffffffffffffffffffffffffffffffffff1673ffffffffffffffffffffffffffffffffffffffff166323b872dd303360066000888152602001908152602001600020600201546040518463ffffffff1660e01b8152600401610e7d93929190611ab2565b600060405180830381600087803b158015610e9757600080fd5b505af1158015610eab573d6000803e3d6000fd5b5050505060006006600085815260200190815260200160002060030160006101000a81548160ff0219169083151502179055507f8337187e9b2261b6c70c8b697fa786ee4c12cc1242babae002aba83636396a9e338442604051610f1193929190611b57565b60405180910390a1505050565b60606000808367ffffffffffffffff811115610f63577f4e487b7100000000000000000000000000000000000000000000000000000000600052604160045260246000fd5b604051908082528060200260200182016040528015610f915781602001602082028036833780820191505090505b5090506000600190505b60035481116110415784831161102e57600115156007600083815260200190815260200160002060009054906101000a900460ff161515141561102d5780828481518110611012577f4e487b7100000000000000000000000000000000000000000000000000000000600052603260045260246000fd5b602002602001018181525050828061102990611f20565b9350505b5b808061103990611f20565b915050610f9b565b508092505050919050565b6000600160045461105d9190611d70565b90505b600354811161110e57600115156006600083815260200190815260200160002060030160009054906101000a900460ff16151514156110fb57426006600083815260200190815260200160002060000160189054906101000a900463ffffffff1663ffffffff1610156110fa5760016007600083815260200190815260200160002060006101000a81548160ff0219169083151502179055505b5b808061110690611f20565b915050611060565b50600354600481905550565b6000600260149054906101000a900460ff16905090565b60008060009054906101000a900473ffffffffffffffffffffffffffffffffffffffff16905090565b60008054906101000a900473ffffffffffffffffffffffffffffffffffffffff1673ffffffffffffffffffffffffffffffffffffffff163373ffffffffffffffffffffffffffffffffffffffff16146111e8576040517f08c379a00000000000000000000000000000000000000000000000000000000081526004016111df90611c0b565b60405180910390fd5b8073ffffffffffffffffffffffffffffffffffffffff1660008054906101000a900473ffffffffffffffffffffffffffffffffffffffff1673ffffffffffffffffffffffffffffffffffffffff167f342827c97908e5e2f71151c08502a66d44b6f758e3ac2f1de95f02eb95f0a73560405160405180910390a3806000806101000a81548173ffffffffffffffffffffffffffffffffffffffff021916908373ffffffffffffffffffffffffffffffffffffffff16021790555050565b6000806000806006600086815260200190815260200160002060000160189054906101000a900463ffffffff16600660008781526020019081526020016000206001015460066000888152602001908152602001600020600201546006600089815260200190815260200160002060030160009054906101000a900460ff1693509350935093509193509193565b60008054906101000a900473ffffffffffffffffffffffffffffffffffffffff1673ffffffffffffffffffffffffffffffffffffffff163373ffffffffffffffffffffffffffffffffffffffff16146113c1576040517f08c379a00000000000000000000000000000000000000000000000000000000081526004016113b890611c0b565b60405180910390fd5b80600260146101000a81548160ff021916908360ff16021790555050565b82600160006101000a81548173ffffffffffffffffffffffffffffffffffffffff021916908373ffffffffffffffffffffffffffffffffffffffff1602179055503373ffffffffffffffffffffffffffffffffffffffff16600160009054906101000a900473ffffffffffffffffffffffffffffffffffffffff1673ffffffffffffffffffffffffffffffffffffffff16636352211e846040518263ffffffff1660e01b81526004016114929190611cab565b60206040518083038186803b1580156114aa57600080fd5b505afa1580156114be573d6000803e3d6000fd5b505050506040513d601f19601f820116820180604052508101906114e29190611793565b73ffffffffffffffffffffffffffffffffffffffff1614611538576040517f08c379a000000000000000000000000000000000000000000000000000000000815260040161152f90611c2b565b60405180910390fd5b6040518060400160405280600160009054906101000a900473ffffffffffffffffffffffffffffffffffffffff1673ffffffffffffffffffffffffffffffffffffffff168152602001828152506005600084815260200190815260200160002060008201518160000160006101000a81548173ffffffffffffffffffffffffffffffffffffffff021916908373ffffffffffffffffffffffffffffffffffffffff16021790555060208201518160010155905050505050565b60006006600083815260200190815260200160002060030160009054906101000a900460ff16801561164e5750426006600084815260200190815260200160002060000160189054906101000a900463ffffffff1663ffffffff16105b61168d576040517f08c379a000000000000000000000000000000000000000000000000000000000815260040161168490611c6b565b60405180910390fd5b60016007600084815260200190815260200160002060006101000a81548160ff02191690831515021790555060019050919050565b6000813590506116d181612158565b92915050565b6000815190506116e681612158565b92915050565b6000815190506116fb8161216f565b92915050565b60008135905061171081612186565b92915050565b6000813590506117258161219d565b92915050565b60008151905061173a8161219d565b92915050565b60008135905061174f816121b4565b92915050565b600081359050611764816121cb565b92915050565b60006020828403121561177c57600080fd5b600061178a848285016116c2565b91505092915050565b6000602082840312156117a557600080fd5b60006117b3848285016116d7565b91505092915050565b6000602082840312156117ce57600080fd5b60006117dc848285016116ec565b91505092915050565b600080600080608085870312156117fb57600080fd5b600061180987828801611701565b945050602061181a87828801611716565b935050604061182b87828801611716565b925050606061183c87828801611740565b91505092959194509250565b60006020828403121561185a57600080fd5b600061186884828501611716565b91505092915050565b60006020828403121561188357600080fd5b60006118918482850161172b565b91505092915050565b6000602082840312156118ac57600080fd5b60006118ba84828501611755565b91505092915050565b60006118cf8383611a5b565b60208301905092915050565b6118e481611e85565b82525050565b60006118f582611d36565b6118ff8185611d4e565b935061190a83611d26565b8060005b8381101561193b57815161192288826118c3565b975061192d83611d41565b92505060018101905061190e565b5085935050505092915050565b61195181611e97565b82525050565b61196081611efc565b82525050565b6000611973602883611d5f565b915061197e82611fc7565b604082019050919050565b6000611996601d83611d5f565b91506119a182612016565b602082019050919050565b60006119b9601383611d5f565b91506119c48261203f565b602082019050919050565b60006119dc602383611d5f565b91506119e782612068565b604082019050919050565b60006119ff602283611d5f565b9150611a0a826120b7565b604082019050919050565b6000611a22601a83611d5f565b9150611a2d82612106565b602082019050919050565b6000611a45601d83611d5f565b9150611a508261212f565b602082019050919050565b611a6481611ed5565b82525050565b611a7381611ed5565b82525050565b611a8281611edf565b82525050565b611a9181611eef565b82525050565b6000602082019050611aac60008301846118db565b92915050565b6000606082019050611ac760008301866118db565b611ad460208301856118db565b611ae16040830184611a6a565b949350505050565b6000608082019050611afe60008301876118db565b611b0b60208301866118db565b611b186040830185611a6a565b611b256060830184611a79565b95945050505050565b6000604082019050611b4360008301856118db565b611b506020830184611a6a565b9392505050565b6000606082019050611b6c60008301866118db565b611b796020830185611a6a565b611b866040830184611a79565b949350505050565b60006020820190508181036000830152611ba881846118ea565b905092915050565b6000602082019050611bc56000830184611957565b92915050565b60006020820190508181036000830152611be481611966565b9050919050565b60006020820190508181036000830152611c0481611989565b9050919050565b60006020820190508181036000830152611c24816119ac565b9050919050565b60006020820190508181036000830152611c44816119cf565b9050919050565b60006020820190508181036000830152611c64816119f2565b9050919050565b60006020820190508181036000830152611c8481611a15565b9050919050565b60006020820190508181036000830152611ca481611a38565b9050919050565b6000602082019050611cc06000830184611a6a565b92915050565b6000608082019050611cdb6000830187611a79565b611ce86020830186611a6a565b611cf56040830185611a6a565b611d026060830184611948565b95945050505050565b6000602082019050611d206000830184611a88565b92915050565b6000819050602082019050919050565b600081519050919050565b6000602082019050919050565b600082825260208201905092915050565b600082825260208201905092915050565b6000611d7b82611ed5565b9150611d8683611ed5565b9250827fffffffffffffffffffffffffffffffffffffffffffffffffffffffffffffffff03821115611dbb57611dba611f69565b5b828201905092915050565b6000611dd182611ed5565b9150611ddc83611ed5565b925082611dec57611deb611f98565b5b828204905092915050565b6000611e0282611ed5565b9150611e0d83611ed5565b9250817fffffffffffffffffffffffffffffffffffffffffffffffffffffffffffffffff0483118215151615611e4657611e45611f69565b5b828202905092915050565b6000611e5c82611edf565b9150611e6783611edf565b925082821015611e7a57611e79611f69565b5b828203905092915050565b6000611e9082611eb5565b9050919050565b60008115159050919050565b6000611eae82611e85565b9050919050565b600073ffffffffffffffffffffffffffffffffffffffff82169050919050565b6000819050919050565b600063ffffffff82169050919050565b600060ff82169050919050565b6000611f0782611f0e565b9050919050565b6000611f1982611eb5565b9050919050565b6000611f2b82611ed5565b91507fffffffffffffffffffffffffffffffffffffffffffffffffffffffffffffffff821415611f5e57611f5d611f69565b5b600182019050919050565b7f4e487b7100000000000000000000000000000000000000000000000000000000600052601160045260246000fd5b7f4e487b7100000000000000000000000000000000000000000000000000000000600052601260045260246000fd5b7f4572726f72203a3a204e6f7420656e6f7567682062616c616e6365205553444360008201527f20746f206c656e64000000000000000000000000000000000000000000000000602082015250565b7f4572726f723a2052657061796d656e742074696d652065787069726564000000600082015250565b7f43616c6c6572206973206e6f74206f776e657200000000000000000000000000600082015250565b7f4f6e6c79206f776e6572206f66204e46542063616e20636f6c6c61746572616c60008201527f697a650000000000000000000000000000000000000000000000000000000000602082015250565b7f54686973206973206e6f742061204e6f6e20506572666f726d696e672041737360008201527f6574000000000000000000000000000000000000000000000000000000000000602082015250565b7f54686973206c6f616e206973206e6f742061204e504120796574000000000000600082015250565b7f54686973206c6f616e206973206e6f206c6f6e67657220616374697665000000600082015250565b61216181611e85565b811461216c57600080fd5b50565b61217881611e97565b811461218357600080fd5b50565b61218f81611ea3565b811461219a57600080fd5b50565b6121a681611ed5565b81146121b157600080fd5b50565b6121bd81611edf565b81146121c857600080fd5b50565b6121d481611eef565b81146121df57600080fd5b5056fea264697066735822122098a244057bf206df56931c9f631511ea488e091b5dfbbc959c890237fb070bb864736f6c63430008040033",
  "immutableReferences": {},
  "source": "//SPDX-License-Identifier:MIT\r\npragma solidity 0.8.4;\r\n\r\ninterface IERC165 {\r\n    function supportsInterface(bytes4 interfaceId) external view returns (bool);\r\n}\r\ninterface IERC721 is IERC165 {\r\n    event Transfer(address indexed from, address indexed to, uint256 indexed tokenId);\r\n    event Approval(address indexed owner, address indexed approved, uint256 indexed tokenId);\r\n    event ApprovalForAll(address indexed owner, address indexed operator, bool approved);\r\n    function balanceOf(address owner) external view returns (uint256 balance);\r\n    function ownerOf(uint256 tokenId) external view returns (address owner);\r\n    function safeTransferFrom(\r\n        address from,\r\n        address to,\r\n        uint256 tokenId,\r\n        bytes calldata data\r\n    ) external;\r\n    function safeTransferFrom(\r\n        address from,\r\n        address to,\r\n        uint256 tokenId\r\n    ) external;\r\n    function transferFrom(\r\n        address from,\r\n        address to,\r\n        uint256 tokenId\r\n    ) external;\r\n    function approve(address to, uint256 tokenId) external;\r\n    function setApprovalForAll(address operator, bool _approved) external;\r\n    function getApproved(uint256 tokenId) external view returns (address operator);\r\n    function isApprovedForAll(address owner, address operator) external view returns (bool);\r\n}\r\ninterface IERC20 {\r\n    event Transfer(address indexed from, address indexed to, uint256 value);\r\n    event Approval(address indexed owner, address indexed spender, uint256 value);\r\n    function totalSupply() external view returns (uint256);\r\n    function balanceOf(address account) external view returns (uint256);\r\n    function transfer(address to, uint256 amount) external returns (bool);\r\n    function allowance(address owner, address spender) external view returns (uint256);\r\n    function approve(address spender, uint256 amount) external returns (bool);\r\n    function transferFrom(\r\n        address from,\r\n        address to,\r\n        uint256 amount\r\n    ) external returns (bool);\r\n}\r\ncontract Owner {\r\n    address private owner;\r\n    event OwnerSet(address indexed oldOwner, address indexed newOwner);\r\n    modifier isOwner() {\r\n        require(msg.sender == owner, \"Caller is not owner\");\r\n        _;\r\n    }\r\n    constructor() {\r\n        owner = msg.sender; // 'msg.sender' is sender of current call, contract deployer for a constructor\r\n        emit OwnerSet(address(0), owner);\r\n    }\r\n    function changeOwner(address newOwner) public isOwner {\r\n        emit OwnerSet(owner, newOwner);\r\n        owner = newOwner;\r\n    }\r\n    function getOwner() external view returns (address) {\r\n        return owner;\r\n    }\r\n}\r\ncontract LendMyNFT is Owner{\r\n\r\n    IERC721 public nft;\r\n    IERC20 usdc;\r\n\r\n    constructor () {\r\n        usdc = IERC20(0xeb8f08a975Ab53E34D8a0330E0D34de942C95926); // usdc rinkeby\r\n        \r\n        interest = 10;//default\r\n        \r\n    }\r\n    uint8 interest;    \r\n    uint256 loanId;\r\n    uint256 lastCheckedId;\r\n    mapping (uint256 => Collateral) stake;  // tokenid to Collateral\r\n    mapping (uint256 => Loan) loans;    // loanId to Loan\r\n    mapping(uint256 => bool) npa;   // loanId to overdue status\r\n    event Loans(address Borrower, uint256 LoanId);\r\n    event RePay(address Borrower, uint256 LoanId, uint32 Time);\r\n    event Liquidate(address Borrower, address Liquidator, uint256 LoanId, uint32 Time);\r\n\r\n    struct Collateral {\r\n        IERC721 nftAddress;\r\n        uint256 price ; // in wei\r\n\r\n    }\r\n    struct Loan {\r\n        address borrower;\r\n        uint32 startTime;\r\n        uint32 endTime;\r\n        uint8 rate; // per annum\r\n        uint256 principal;\r\n        uint256 tokenId;\r\n        bool isActive;\r\n        \r\n    }\r\n    function setInterestRate(uint8 _rate) public isOwner {\r\n        interest = _rate;\r\n    }\r\n    function viewInterestRate() public view returns(uint8){\r\n        return interest;\r\n    }\r\n    function _generateCollateral(IERC721 _nft, uint256 _tokenId, uint256 _price) internal {\r\n        nft = IERC721(_nft);\r\n        require(nft.ownerOf(_tokenId) == msg.sender, \"Only owner of NFT can collateralize\");\r\n        stake[_tokenId] = Collateral( nft,_price);\r\n    }\r\n    // Borrower needs to 'set Approval for All' to contract in NFT contract\r\n    function borrow (IERC721 _nft,uint256 _tokenId, uint256 _price, uint32 _endTime) public returns(uint256 LoanId) {\r\n        _generateCollateral(_nft,_tokenId,_price);\r\n        uint256 weiAmount = stake[_tokenId].price *70/100;\r\n        require(usdc.balanceOf(address(this))>=weiAmount, \"Error :: Not enough balance USDC to lend\");\r\n        nft.transferFrom(msg.sender,address(this),_tokenId);\r\n        usdc.transfer(msg.sender,weiAmount);\r\n        loanId++;\r\n        loans[loanId] = Loan(msg.sender,uint32(block.timestamp),_endTime,interest,weiAmount,_tokenId,true);\r\n        npa[loanId] = false;\r\n        emit Loans(msg.sender,loanId);\r\n        return loanId;\r\n    }\r\n    function viewLoan(uint256 _loanId)public view returns(uint32,uint256,uint256,bool){\r\n        return (loans[_loanId].endTime,loans[_loanId].principal,loans[_loanId].tokenId,loans[_loanId].isActive );\r\n    }\r\n    // Borrower needs to approve contract for transferFrom of USDC amount in USDC contract.\r\n    \r\n    function rePay(uint256 _loanId) public {\r\n        require(block.timestamp<loans[_loanId].endTime, \"Error: Repayment time expired\");\r\n        require(msg.sender == loans[_loanId].borrower);\r\n        require(loans[_loanId].isActive, \"This loan is no longer active\");\r\n        nft = stake[_loanId].nftAddress;\r\n        uint32 elapsedTime = uint32(block.timestamp) - loans[_loanId].startTime;\r\n        uint256 rePayAmount = loans[_loanId].principal + loans[_loanId].principal*loans[_loanId].rate * elapsedTime/(60*60*24*365*100);\r\n        usdc.transferFrom(msg.sender, address(this), rePayAmount);\r\n        nft.transferFrom(address(this), msg.sender, loans[_loanId].tokenId);\r\n        loans[_loanId].isActive = false;\r\n        emit RePay(msg.sender, _loanId, uint32(block.timestamp));\r\n    }\r\n    function _assignAsNPA(uint256 _loanId) internal returns(bool) {\r\n        require(loans[_loanId].isActive && loans[_loanId].endTime<block.timestamp, \"This loan is not a NPA yet\");\r\n        npa[_loanId] = true;\r\n        return true;\r\n    }\r\n    function assignAllNPA() public {\r\n        for(uint256 i = lastCheckedId+1; i<=loanId;i++){\r\n            if(loans[i].isActive == true){\r\n                if(loans[i].endTime<block.timestamp){\r\n                npa[i] = true;\r\n                }\r\n            }\r\n        }\r\n        lastCheckedId = loanId;\r\n    }\r\n    function listNPA(uint256 _noOffResults) public view returns(uint256[] memory){\r\n        uint k;\r\n        uint256[] memory npas = new uint256[](_noOffResults);\r\n        for(uint i=1;i<=loanId;i++){\r\n            if(k<=_noOffResults){\r\n                if(npa[i] == true){\r\n                npas[k] = i;\r\n                k++;\r\n                }\r\n            }\r\n        }\r\n        return npas;\r\n    }\r\n    // Liquidator needs to approve contract for transferFrom of USDC amount in USDC contract.\r\n    function liquidateNPA(uint256 _loanId) public {\r\n        require(npa[_loanId] || _assignAsNPA(_loanId), \"This is not a Non Performing Asset\" );\r\n        require(loans[_loanId].isActive, \"This loan is no longer active\");\r\n        uint32 elapsedTime = uint32(block.timestamp) - loans[_loanId].startTime;\r\n        uint256 rePayAmount = loans[_loanId].principal + loans[_loanId].principal*loans[_loanId].rate * elapsedTime/(60*60*24*365*100);\r\n        usdc.transferFrom(msg.sender, address(this), rePayAmount);\r\n        nft = stake[_loanId].nftAddress;\r\n        nft.transferFrom(address(this), msg.sender, loans[_loanId].tokenId);\r\n        loans[_loanId].isActive = false;\r\n        npa[_loanId] = false;\r\n        emit Liquidate(loans[_loanId].borrower,msg.sender,_loanId,uint32(block.timestamp));\r\n    }\r\n\r\n}",
  "sourcePath": "C:\\Users\\admin\\OneDrive\\Documents\\lendMyNFT\\contracts\\lendMyNFT.sol",
  "compiler": {
    "name": "solc",
    "version": "0.8.4+commit.c7e474f2.Emscripten.clang"
  },
  "schemaVersion": "3.1.0",
  "updatedAt": "2022-05-12T06:45:21.350Z",
  "devdoc": {
    "kind": "dev",
    "methods": {},
    "version": 1
  },
  "userdoc": {
    "kind": "user",
    "methods": {},
    "version": 1
  }
}