{
  "contractName": "LendMyNFT",
  "abi": [
    {
      "inputs": [],
      "stateMutability": "nonpayable",
      "type": "constructor"
    },
    {
      "anonymous": false,
      "inputs": [
        {
          "indexed": true,
          "internalType": "address",
          "name": "oldOwner",
          "type": "address"
        },
        {
          "indexed": true,
          "internalType": "address",
          "name": "newOwner",
          "type": "address"
        }
      ],
      "name": "OwnerSet",
      "type": "event"
    },
    {
      "inputs": [
        {
          "internalType": "address",
          "name": "newOwner",
          "type": "address"
        }
      ],
      "name": "changeOwner",
      "outputs": [],
      "stateMutability": "nonpayable",
      "type": "function"
    },
    {
      "inputs": [],
      "name": "getOwner",
      "outputs": [
        {
          "internalType": "address",
          "name": "",
          "type": "address"
        }
      ],
      "stateMutability": "view",
      "type": "function",
      "constant": true
    },
    {
      "inputs": [],
      "name": "nft",
      "outputs": [
        {
          "internalType": "contract IERC721",
          "name": "",
          "type": "address"
        }
      ],
      "stateMutability": "view",
      "type": "function",
      "constant": true
    },
    {
      "inputs": [
        {
          "internalType": "uint8",
          "name": "_rate",
          "type": "uint8"
        }
      ],
      "name": "setInterestRate",
      "outputs": [],
      "stateMutability": "nonpayable",
      "type": "function"
    },
    {
      "inputs": [],
      "name": "viewInterestRate",
      "outputs": [
        {
          "internalType": "uint8",
          "name": "",
          "type": "uint8"
        }
      ],
      "stateMutability": "view",
      "type": "function",
      "constant": true
    },
    {
      "inputs": [
        {
          "internalType": "contract IERC721",
          "name": "_nft",
          "type": "address"
        },
        {
          "internalType": "uint256",
          "name": "_tokenId",
          "type": "uint256"
        },
        {
          "internalType": "uint256",
          "name": "_price",
          "type": "uint256"
        }
      ],
      "name": "_generateCollateral",
      "outputs": [],
      "stateMutability": "nonpayable",
      "type": "function"
    },
    {
      "inputs": [
        {
          "internalType": "contract IERC721",
          "name": "_nft",
          "type": "address"
        },
        {
          "internalType": "uint256",
          "name": "_tokenId",
          "type": "uint256"
        },
        {
          "internalType": "uint256",
          "name": "_price",
          "type": "uint256"
        },
        {
          "internalType": "uint32",
          "name": "_endTime",
          "type": "uint32"
        }
      ],
      "name": "borrow",
      "outputs": [
        {
          "internalType": "uint256",
          "name": "LoanId",
          "type": "uint256"
        }
      ],
      "stateMutability": "nonpayable",
      "type": "function"
    },
    {
      "inputs": [
        {
          "internalType": "uint256",
          "name": "_loanId",
          "type": "uint256"
        }
      ],
      "name": "rePay",
      "outputs": [],
      "stateMutability": "nonpayable",
      "type": "function"
    },
    {
      "inputs": [],
      "name": "assignAllNPA",
      "outputs": [],
      "stateMutability": "nonpayable",
      "type": "function"
    },
    {
      "inputs": [
        {
          "internalType": "uint256",
          "name": "_noOffResults",
          "type": "uint256"
        }
      ],
      "name": "listNPA",
      "outputs": [
        {
          "internalType": "uint256[]",
          "name": "",
          "type": "uint256[]"
        }
      ],
      "stateMutability": "view",
      "type": "function",
      "constant": true
    },
    {
      "inputs": [
        {
          "internalType": "uint256",
          "name": "_loanId",
          "type": "uint256"
        }
      ],
      "name": "liquidateNPA",
      "outputs": [],
      "stateMutability": "nonpayable",
      "type": "function"
    }
  ],
  "bytecode": "0x608060405234801561001057600080fd5b50336000806101000a81548173ffffffffffffffffffffffffffffffffffffffff021916908373ffffffffffffffffffffffffffffffffffffffff16021790555060008054906101000a900473ffffffffffffffffffffffffffffffffffffffff1673ffffffffffffffffffffffffffffffffffffffff16600073ffffffffffffffffffffffffffffffffffffffff167f342827c97908e5e2f71151c08502a66d44b6f758e3ac2f1de95f02eb95f0a73560405160405180910390a373eb8f08a975ab53e34d8a0330e0d34de942c95926600260006101000a81548173ffffffffffffffffffffffffffffffffffffffff021916908373ffffffffffffffffffffffffffffffffffffffff160217905550611e7a806101306000396000f3fe608060405234801561001057600080fd5b50600436106100a95760003560e01c806366ffb6b41161007157806366ffb6b41461016457806369aed07e1461016e578063893d20e81461018c578063a6f9dae1146101aa578063c43c6d23146101c6578063df33d72f146101e2576100a9565b806309dbb5f1146100ae57806329fd461d146100de57806347ccca02146100fa5780634aa4807d146101185780635069dfd114610134575b600080fd5b6100c860048036038101906100c391906114e9565b6101fe565b6040516100d591906118d2565b60405180910390f35b6100f860048036038101906100f3919061154c565b6105c9565b005b61010261092a565b60405161010f91906117f7565b60405180910390f35b610132600480360381019061012d919061154c565b610950565b005b61014e6004803603810190610149919061154c565b610c6e565b60405161015b91906117d5565b60405180910390f35b61016c610d98565b005b610176610e5d565b60405161018391906118ed565b60405180910390f35b610194610e74565b6040516101a1919061175a565b60405180910390f35b6101c460048036038101906101bf919061141f565b610e9d565b005b6101e060048036038101906101db919061149a565b610fe8565b005b6101fc60048036038101906101f7919061159e565b6111fa565b005b600061020b858585610fe8565b60006064604660056000888152602001908152602001600020600101546102329190611a44565b61023c91906119e2565b905080600260009054906101000a900473ffffffffffffffffffffffffffffffffffffffff1673ffffffffffffffffffffffffffffffffffffffff166370a08231306040518263ffffffff1660e01b815260040161029a919061175a565b60206040518083038186803b1580156102b257600080fd5b505afa1580156102c6573d6000803e3d6000fd5b505050506040513d601f19601f820116820180604052508101906102ea9190611575565b101561032b576040517f08c379a000000000000000000000000000000000000000000000000000000000815260040161032290611812565b60405180910390fd5b600160009054906101000a900473ffffffffffffffffffffffffffffffffffffffff1673ffffffffffffffffffffffffffffffffffffffff166342842e0e3330886040518463ffffffff1660e01b815260040161038a93929190611775565b600060405180830381600087803b1580156103a457600080fd5b505af11580156103b8573d6000803e3d6000fd5b50505050600260009054906101000a900473ffffffffffffffffffffffffffffffffffffffff1673ffffffffffffffffffffffffffffffffffffffff1663a9059cbb33836040518363ffffffff1660e01b81526004016104199291906117ac565b602060405180830381600087803b15801561043357600080fd5b505af1158015610447573d6000803e3d6000fd5b505050506040513d601f19601f8201168201806040525081019061046b9190611471565b506003600081548092919061047f90611bab565b91905055506040518060c001604052804263ffffffff1681526020018463ffffffff168152602001600260149054906101000a900460ff1660ff1681526020018281526020018681526020016001151581525060066000600354815260200190815260200160002060008201518160000160006101000a81548163ffffffff021916908363ffffffff16021790555060208201518160000160046101000a81548163ffffffff021916908363ffffffff16021790555060408201518160000160086101000a81548160ff021916908360ff160217905550606082015181600101556080820151816002015560a08201518160030160006101000a81548160ff021916908315150217905550905050600060076000600354815260200190815260200160002060006101000a81548160ff021916908315150217905550600354915050949350505050565b6007600082815260200190815260200160002060009054906101000a900460ff16806105fa57506105f9816112a6565b5b610639576040517f08c379a0000000000000000000000000000000000000000000000000000000008152600401610630906118b2565b60405180910390fd5b60006006600083815260200190815260200160002060000160009054906101000a900463ffffffff164261066d9190611adc565b9050600063bbf81e008263ffffffff166006600086815260200190815260200160002060000160089054906101000a900460ff1660ff1660066000878152602001908152602001600020600101546106c59190611a44565b6106cf9190611a44565b6106d991906119e2565b60066000858152602001908152602001600020600101546106fa9190611952565b9050600260009054906101000a900473ffffffffffffffffffffffffffffffffffffffff1673ffffffffffffffffffffffffffffffffffffffff1663a9059cbb30836040518363ffffffff1660e01b81526004016107599291906117ac565b602060405180830381600087803b15801561077357600080fd5b505af1158015610787573d6000803e3d6000fd5b505050506040513d601f19601f820116820180604052508101906107ab9190611471565b506005600084815260200190815260200160002060000160009054906101000a900473ffffffffffffffffffffffffffffffffffffffff16600160006101000a81548173ffffffffffffffffffffffffffffffffffffffff021916908373ffffffffffffffffffffffffffffffffffffffff160217905550600160009054906101000a900473ffffffffffffffffffffffffffffffffffffffff1673ffffffffffffffffffffffffffffffffffffffff166342842e0e303360066000888152602001908152602001600020600201546040518463ffffffff1660e01b815260040161089893929190611775565b600060405180830381600087803b1580156108b257600080fd5b505af11580156108c6573d6000803e3d6000fd5b5050505060006006600085815260200190815260200160002060030160006101000a81548160ff02191690831515021790555060006007600085815260200190815260200160002060006101000a81548160ff021916908315150217905550505050565b600160009054906101000a900473ffffffffffffffffffffffffffffffffffffffff1681565b6006600082815260200190815260200160002060000160049054906101000a900463ffffffff1663ffffffff1642106109be576040517f08c379a00000000000000000000000000000000000000000000000000000000081526004016109b590611832565b60405180910390fd5b6005600082815260200190815260200160002060000160009054906101000a900473ffffffffffffffffffffffffffffffffffffffff16600160006101000a81548173ffffffffffffffffffffffffffffffffffffffff021916908373ffffffffffffffffffffffffffffffffffffffff16021790555060006006600083815260200190815260200160002060000160009054906101000a900463ffffffff1642610a699190611adc565b9050600063bbf81e00826006600086815260200190815260200160002060000160089054906101000a900460ff1660ff16610aa49190611a9e565b610aae9190611a13565b6001610aba91906119a8565b63ffffffff166006600085815260200190815260200160002060010154610ae19190611a44565b9050600260009054906101000a900473ffffffffffffffffffffffffffffffffffffffff1673ffffffffffffffffffffffffffffffffffffffff1663a9059cbb30836040518363ffffffff1660e01b8152600401610b409291906117ac565b602060405180830381600087803b158015610b5a57600080fd5b505af1158015610b6e573d6000803e3d6000fd5b505050506040513d601f19601f82011682018060405250810190610b929190611471565b50600160009054906101000a900473ffffffffffffffffffffffffffffffffffffffff1673ffffffffffffffffffffffffffffffffffffffff166342842e0e303360066000888152602001908152602001600020600201546040518463ffffffff1660e01b8152600401610c0893929190611775565b600060405180830381600087803b158015610c2257600080fd5b505af1158015610c36573d6000803e3d6000fd5b5050505060006006600085815260200190815260200160002060030160006101000a81548160ff021916908315150217905550505050565b60606000808367ffffffffffffffff811115610cb3577f4e487b7100000000000000000000000000000000000000000000000000000000600052604160045260246000fd5b604051908082528060200260200182016040528015610ce15781602001602082028036833780820191505090505b50905060005b6003548111610d8d57848311610d7a57600115156007600083815260200190815260200160002060009054906101000a900460ff1615151415610d795780828481518110610d5e577f4e487b7100000000000000000000000000000000000000000000000000000000600052603260045260246000fd5b6020026020010181815250508280610d7590611bab565b9350505b5b8080610d8590611bab565b915050610ce7565b508092505050919050565b600060045490505b6003548111610e515760016006600083815260200190815260200160002060030160006101000a81548160ff021916908315150217905515610e3e57426006600083815260200190815260200160002060000160049054906101000a900463ffffffff1663ffffffff161015610e3d5760016007600083815260200190815260200160002060006101000a81548160ff0219169083151502179055505b5b8080610e4990611bab565b915050610da0565b50600354600481905550565b6000600260149054906101000a900460ff16905090565b60008060009054906101000a900473ffffffffffffffffffffffffffffffffffffffff16905090565b60008054906101000a900473ffffffffffffffffffffffffffffffffffffffff1673ffffffffffffffffffffffffffffffffffffffff163373ffffffffffffffffffffffffffffffffffffffff1614610f2b576040517f08c379a0000000000000000000000000000000000000000000000000000000008152600401610f2290611852565b60405180910390fd5b8073ffffffffffffffffffffffffffffffffffffffff1660008054906101000a900473ffffffffffffffffffffffffffffffffffffffff1673ffffffffffffffffffffffffffffffffffffffff167f342827c97908e5e2f71151c08502a66d44b6f758e3ac2f1de95f02eb95f0a73560405160405180910390a3806000806101000a81548173ffffffffffffffffffffffffffffffffffffffff021916908373ffffffffffffffffffffffffffffffffffffffff16021790555050565b82600160006101000a81548173ffffffffffffffffffffffffffffffffffffffff021916908373ffffffffffffffffffffffffffffffffffffffff1602179055503373ffffffffffffffffffffffffffffffffffffffff16600160009054906101000a900473ffffffffffffffffffffffffffffffffffffffff1673ffffffffffffffffffffffffffffffffffffffff16636352211e846040518263ffffffff1660e01b815260040161109b91906118d2565b60206040518083038186803b1580156110b357600080fd5b505afa1580156110c7573d6000803e3d6000fd5b505050506040513d601f19601f820116820180604052508101906110eb9190611448565b73ffffffffffffffffffffffffffffffffffffffff1614611141576040517f08c379a000000000000000000000000000000000000000000000000000000000815260040161113890611892565b60405180910390fd5b6040518060400160405280600160009054906101000a900473ffffffffffffffffffffffffffffffffffffffff1673ffffffffffffffffffffffffffffffffffffffff168152602001828152506005600084815260200190815260200160002060008201518160000160006101000a81548173ffffffffffffffffffffffffffffffffffffffff021916908373ffffffffffffffffffffffffffffffffffffffff16021790555060208201518160010155905050505050565b60008054906101000a900473ffffffffffffffffffffffffffffffffffffffff1673ffffffffffffffffffffffffffffffffffffffff163373ffffffffffffffffffffffffffffffffffffffff1614611288576040517f08c379a000000000000000000000000000000000000000000000000000000000815260040161127f90611852565b60405180910390fd5b80600260146101000a81548160ff021916908360ff16021790555050565b60006006600083815260200190815260200160002060030160009054906101000a900460ff1680156113035750426006600084815260200190815260200160002060000160049054906101000a900463ffffffff1663ffffffff16105b611342576040517f08c379a000000000000000000000000000000000000000000000000000000000815260040161133990611872565b60405180910390fd5b60016007600084815260200190815260200160002060006101000a81548160ff02191690831515021790555060019050919050565b60008135905061138681611dba565b92915050565b60008151905061139b81611dba565b92915050565b6000815190506113b081611dd1565b92915050565b6000813590506113c581611de8565b92915050565b6000813590506113da81611dff565b92915050565b6000815190506113ef81611dff565b92915050565b60008135905061140481611e16565b92915050565b60008135905061141981611e2d565b92915050565b60006020828403121561143157600080fd5b600061143f84828501611377565b91505092915050565b60006020828403121561145a57600080fd5b60006114688482850161138c565b91505092915050565b60006020828403121561148357600080fd5b6000611491848285016113a1565b91505092915050565b6000806000606084860312156114af57600080fd5b60006114bd868287016113b6565b93505060206114ce868287016113cb565b92505060406114df868287016113cb565b9150509250925092565b600080600080608085870312156114ff57600080fd5b600061150d878288016113b6565b945050602061151e878288016113cb565b935050604061152f878288016113cb565b9250506060611540878288016113f5565b91505092959194509250565b60006020828403121561155e57600080fd5b600061156c848285016113cb565b91505092915050565b60006020828403121561158757600080fd5b6000611595848285016113e0565b91505092915050565b6000602082840312156115b057600080fd5b60006115be8482850161140a565b91505092915050565b60006115d3838361172d565b60208301905092915050565b6115e881611b10565b82525050565b60006115f982611918565b6116038185611930565b935061160e83611908565b8060005b8381101561163f57815161162688826115c7565b975061163183611923565b925050600181019050611612565b5085935050505092915050565b61165581611b87565b82525050565b6000611668602883611941565b915061167382611c52565b604082019050919050565b600061168b601d83611941565b915061169682611ca1565b602082019050919050565b60006116ae601383611941565b91506116b982611cca565b602082019050919050565b60006116d1601583611941565b91506116dc82611cf3565b602082019050919050565b60006116f4602383611941565b91506116ff82611d1c565b604082019050919050565b6000611717602283611941565b915061172282611d6b565b604082019050919050565b61173681611b60565b82525050565b61174581611b60565b82525050565b61175481611b7a565b82525050565b600060208201905061176f60008301846115df565b92915050565b600060608201905061178a60008301866115df565b61179760208301856115df565b6117a4604083018461173c565b949350505050565b60006040820190506117c160008301856115df565b6117ce602083018461173c565b9392505050565b600060208201905081810360008301526117ef81846115ee565b905092915050565b600060208201905061180c600083018461164c565b92915050565b6000602082019050818103600083015261182b8161165b565b9050919050565b6000602082019050818103600083015261184b8161167e565b9050919050565b6000602082019050818103600083015261186b816116a1565b9050919050565b6000602082019050818103600083015261188b816116c4565b9050919050565b600060208201905081810360008301526118ab816116e7565b9050919050565b600060208201905081810360008301526118cb8161170a565b9050919050565b60006020820190506118e7600083018461173c565b92915050565b6000602082019050611902600083018461174b565b92915050565b6000819050602082019050919050565b600081519050919050565b6000602082019050919050565b600082825260208201905092915050565b600082825260208201905092915050565b600061195d82611b60565b915061196883611b60565b9250827fffffffffffffffffffffffffffffffffffffffffffffffffffffffffffffffff0382111561199d5761199c611bf4565b5b828201905092915050565b60006119b382611b6a565b91506119be83611b6a565b92508263ffffffff038211156119d7576119d6611bf4565b5b828201905092915050565b60006119ed82611b60565b91506119f883611b60565b925082611a0857611a07611c23565b5b828204905092915050565b6000611a1e82611b6a565b9150611a2983611b6a565b925082611a3957611a38611c23565b5b828204905092915050565b6000611a4f82611b60565b9150611a5a83611b60565b9250817fffffffffffffffffffffffffffffffffffffffffffffffffffffffffffffffff0483118215151615611a9357611a92611bf4565b5b828202905092915050565b6000611aa982611b6a565b9150611ab483611b6a565b92508163ffffffff0483118215151615611ad157611ad0611bf4565b5b828202905092915050565b6000611ae782611b6a565b9150611af283611b6a565b925082821015611b0557611b04611bf4565b5b828203905092915050565b6000611b1b82611b40565b9050919050565b60008115159050919050565b6000611b3982611b10565b9050919050565b600073ffffffffffffffffffffffffffffffffffffffff82169050919050565b6000819050919050565b600063ffffffff82169050919050565b600060ff82169050919050565b6000611b9282611b99565b9050919050565b6000611ba482611b40565b9050919050565b6000611bb682611b60565b91507fffffffffffffffffffffffffffffffffffffffffffffffffffffffffffffffff821415611be957611be8611bf4565b5b600182019050919050565b7f4e487b7100000000000000000000000000000000000000000000000000000000600052601160045260246000fd5b7f4e487b7100000000000000000000000000000000000000000000000000000000600052601260045260246000fd5b7f4572726f72203a3a204e6f7420656e6f7567682062616c616e6365205553444360008201527f20746f206c656e64000000000000000000000000000000000000000000000000602082015250565b7f4572726f723a2052657061796d656e742074696d652065787069726564000000600082015250565b7f43616c6c6572206973206e6f74206f776e657200000000000000000000000000600082015250565b7f54686973206973206e6f742061204e5041207965740000000000000000000000600082015250565b7f4f6e6c79206f776e6572206f66204e46542063616e20636f6c6c61746572616c60008201527f697a650000000000000000000000000000000000000000000000000000000000602082015250565b7f54686973206973206e6f742061204e6f6e20506572666f726d696e672041737360008201527f6574000000000000000000000000000000000000000000000000000000000000602082015250565b611dc381611b10565b8114611dce57600080fd5b50565b611dda81611b22565b8114611de557600080fd5b50565b611df181611b2e565b8114611dfc57600080fd5b50565b611e0881611b60565b8114611e1357600080fd5b50565b611e1f81611b6a565b8114611e2a57600080fd5b50565b611e3681611b7a565b8114611e4157600080fd5b5056fea2646970667358221220612645bb051aa14c68480060ce61f028f8e84fb18b51838d92a0b64da5789cb864736f6c63430008040033",
  "immutableReferences": {},
  "source": "//SPDX-License-Identifier:MIT\r\npragma solidity 0.8.4;\r\n\r\ninterface IERC165 {\r\n    function supportsInterface(bytes4 interfaceId) external view returns (bool);\r\n}\r\ninterface IERC721 is IERC165 {\r\n    event Transfer(address indexed from, address indexed to, uint256 indexed tokenId);\r\n    event Approval(address indexed owner, address indexed approved, uint256 indexed tokenId);\r\n    event ApprovalForAll(address indexed owner, address indexed operator, bool approved);\r\n    function balanceOf(address owner) external view returns (uint256 balance);\r\n    function ownerOf(uint256 tokenId) external view returns (address owner);\r\n    function safeTransferFrom(\r\n        address from,\r\n        address to,\r\n        uint256 tokenId,\r\n        bytes calldata data\r\n    ) external;\r\n    function safeTransferFrom(\r\n        address from,\r\n        address to,\r\n        uint256 tokenId\r\n    ) external;\r\n    function transferFrom(\r\n        address from,\r\n        address to,\r\n        uint256 tokenId\r\n    ) external;\r\n    function approve(address to, uint256 tokenId) external;\r\n    function setApprovalForAll(address operator, bool _approved) external;\r\n    function getApproved(uint256 tokenId) external view returns (address operator);\r\n    function isApprovedForAll(address owner, address operator) external view returns (bool);\r\n}\r\ninterface IERC20 {\r\n    event Transfer(address indexed from, address indexed to, uint256 value);\r\n    event Approval(address indexed owner, address indexed spender, uint256 value);\r\n    function totalSupply() external view returns (uint256);\r\n    function balanceOf(address account) external view returns (uint256);\r\n    function transfer(address to, uint256 amount) external returns (bool);\r\n    function allowance(address owner, address spender) external view returns (uint256);\r\n    function approve(address spender, uint256 amount) external returns (bool);\r\n    function transferFrom(\r\n        address from,\r\n        address to,\r\n        uint256 amount\r\n    ) external returns (bool);\r\n}\r\ncontract Owner {\r\n    address private owner;\r\n    event OwnerSet(address indexed oldOwner, address indexed newOwner);\r\n    modifier isOwner() {\r\n        require(msg.sender == owner, \"Caller is not owner\");\r\n        _;\r\n    }\r\n    constructor() {\r\n        owner = msg.sender; // 'msg.sender' is sender of current call, contract deployer for a constructor\r\n        emit OwnerSet(address(0), owner);\r\n    }\r\n    function changeOwner(address newOwner) public isOwner {\r\n        emit OwnerSet(owner, newOwner);\r\n        owner = newOwner;\r\n    }\r\n    function getOwner() external view returns (address) {\r\n        return owner;\r\n    }\r\n}\r\ncontract LendMyNFT is Owner{\r\n\r\n    IERC721 public nft;\r\n    IERC20 usdc;\r\n\r\n    constructor () {\r\n        usdc = IERC20(0xeb8f08a975Ab53E34D8a0330E0D34de942C95926);\r\n\r\n    }\r\n    uint8 interest;    \r\n    uint256 loanId;\r\n    uint256 lastCheckedId;\r\n    mapping (uint256 => Collateral) stake;  // tokenid to Collateral\r\n    mapping (uint256 => Loan) loans;    // loanId to Loan\r\n    mapping(uint256 => bool) npa;   // loanId to overdue status\r\n    struct Collateral {\r\n        IERC721 nftAddress;\r\n        uint256 price ; // in wei\r\n\r\n    }\r\n    struct Loan {\r\n        uint32 startTime;\r\n        uint32 endTime;\r\n        uint8 rate; // per annum\r\n        uint256 principal;\r\n        uint256 tokenId;\r\n        bool isActive;\r\n        \r\n    }\r\n    function setInterestRate(uint8 _rate) public isOwner {\r\n        interest = _rate;\r\n    }\r\n    function viewInterestRate() public view returns(uint8){\r\n        return interest;\r\n    }\r\n    function _generateCollateral(IERC721 _nft, uint256 _tokenId, uint256 _price) public {\r\n        nft = IERC721(_nft);\r\n        require(nft.ownerOf(_tokenId) == msg.sender, \"Only owner of NFT can collateralize\");\r\n        stake[_tokenId] = Collateral( nft,_price);\r\n    }\r\n    function borrow (IERC721 _nft,uint256 _tokenId, uint256 _price, uint32 _endTime) public returns(uint256 LoanId) {\r\n        _generateCollateral(_nft,_tokenId,_price);\r\n        uint256 weiAmount = stake[_tokenId].price *70/100;\r\n        require(usdc.balanceOf(address(this))>=weiAmount, \"Error :: Not enough balance USDC to lend\");\r\n        nft.safeTransferFrom(msg.sender,address(this),_tokenId);\r\n        usdc.transfer(msg.sender,weiAmount);\r\n        loanId++;\r\n        loans[loanId] = Loan(uint32(block.timestamp),_endTime,interest,weiAmount,_tokenId,true);\r\n        npa[loanId] = false;\r\n        return loanId;\r\n    }\r\n    function rePay(uint256 _loanId) public {\r\n        require(block.timestamp<loans[_loanId].endTime, \"Error: Repayment time expired\");\r\n        nft = stake[_loanId].nftAddress;\r\n        uint32 elapsedTime = uint32(block.timestamp) - loans[_loanId].startTime;\r\n        uint256 rePayAmount = loans[_loanId].principal*(1 + loans[_loanId].rate * elapsedTime/(60*60*24*365*100));\r\n        usdc.transfer(address(this), rePayAmount);\r\n        nft.safeTransferFrom(address(this), msg.sender, loans[_loanId].tokenId);\r\n        loans[_loanId].isActive = false;\r\n    }\r\n    function _assignAsNPA(uint256 _loanId) internal returns(bool) {\r\n        require(loans[_loanId].isActive && loans[_loanId].endTime<block.timestamp, \"This is not a NPA yet\");\r\n        npa[_loanId] = true;\r\n        return true;\r\n    }\r\n    function assignAllNPA() public {\r\n        \r\n        for(uint256 i = lastCheckedId; i<=loanId;i++){\r\n            if(loans[i].isActive = true){\r\n                if(loans[i].endTime<block.timestamp){\r\n                npa[i] = true;\r\n                }\r\n            }\r\n            \r\n        }\r\n        lastCheckedId = loanId;\r\n    }\r\n    function listNPA(uint256 _noOffResults) public view returns(uint256[] memory){\r\n        uint k;\r\n        uint256[] memory npas = new uint256[](_noOffResults);\r\n        for(uint i=0;i<=loanId;i++){\r\n            if(k<=_noOffResults){\r\n                if(npa[i] == true){\r\n                npas[k] = i;\r\n                k++;\r\n                }\r\n            }\r\n            \r\n        }\r\n        return npas;\r\n    }\r\n    function liquidateNPA(uint256 _loanId) public {\r\n        require(npa[_loanId] || _assignAsNPA(_loanId), \"This is not a Non Performing Asset\" );\r\n        uint32 elapsedTime = uint32(block.timestamp) - loans[_loanId].startTime;\r\n        uint256 rePayAmount = loans[_loanId].principal + loans[_loanId].principal*loans[_loanId].rate * elapsedTime/(60*60*24*365*100);\r\n        usdc.transfer(address(this), rePayAmount);\r\n        nft = stake[_loanId].nftAddress;\r\n        nft.safeTransferFrom(address(this), msg.sender, loans[_loanId].tokenId);\r\n        loans[_loanId].isActive = false;       \r\n        npa[_loanId] = false;\r\n    }\r\n\r\n}",
  "sourcePath": "C:\\Users\\admin\\OneDrive\\Documents\\lendMyNFT\\contracts\\lendMyNFT.sol",
  "compiler": {
    "name": "solc",
    "version": "0.8.4+commit.c7e474f2.Emscripten.clang"
  },
  "schemaVersion": "3.1.0",
  "updatedAt": "2022-04-29T04:47:42.995Z",
  "networkType": "ethereum",
  "devdoc": {
    "kind": "dev",
    "methods": {},
    "version": 1
  },
  "userdoc": {
    "kind": "user",
    "methods": {},
    "version": 1
  }
}