{
  "contractName": "LendMyNFT",
  "abi": [
    {
      "inputs": [],
      "stateMutability": "nonpayable",
      "type": "constructor"
    },
    {
      "anonymous": false,
      "inputs": [
        {
          "indexed": false,
          "internalType": "address",
          "name": "Borrower",
          "type": "address"
        },
        {
          "indexed": false,
          "internalType": "uint256",
          "name": "LoanId",
          "type": "uint256"
        }
      ],
      "name": "Loans",
      "type": "event"
    },
    {
      "anonymous": false,
      "inputs": [
        {
          "indexed": true,
          "internalType": "address",
          "name": "oldOwner",
          "type": "address"
        },
        {
          "indexed": true,
          "internalType": "address",
          "name": "newOwner",
          "type": "address"
        }
      ],
      "name": "OwnerSet",
      "type": "event"
    },
    {
      "inputs": [
        {
          "internalType": "address",
          "name": "newOwner",
          "type": "address"
        }
      ],
      "name": "changeOwner",
      "outputs": [],
      "stateMutability": "nonpayable",
      "type": "function"
    },
    {
      "inputs": [],
      "name": "getOwner",
      "outputs": [
        {
          "internalType": "address",
          "name": "",
          "type": "address"
        }
      ],
      "stateMutability": "view",
      "type": "function"
    },
    {
      "inputs": [],
      "name": "nft",
      "outputs": [
        {
          "internalType": "contract IERC721",
          "name": "",
          "type": "address"
        }
      ],
      "stateMutability": "view",
      "type": "function"
    },
    {
      "inputs": [
        {
          "internalType": "uint8",
          "name": "_rate",
          "type": "uint8"
        }
      ],
      "name": "setInterestRate",
      "outputs": [],
      "stateMutability": "nonpayable",
      "type": "function"
    },
    {
      "inputs": [],
      "name": "viewInterestRate",
      "outputs": [
        {
          "internalType": "uint8",
          "name": "",
          "type": "uint8"
        }
      ],
      "stateMutability": "view",
      "type": "function"
    },
    {
      "inputs": [
        {
          "internalType": "contract IERC721",
          "name": "_nft",
          "type": "address"
        },
        {
          "internalType": "uint256",
          "name": "_tokenId",
          "type": "uint256"
        },
        {
          "internalType": "uint256",
          "name": "_price",
          "type": "uint256"
        },
        {
          "internalType": "uint32",
          "name": "_endTime",
          "type": "uint32"
        }
      ],
      "name": "borrow",
      "outputs": [
        {
          "internalType": "uint256",
          "name": "LoanId",
          "type": "uint256"
        }
      ],
      "stateMutability": "nonpayable",
      "type": "function"
    },
    {
      "inputs": [
        {
          "internalType": "uint256",
          "name": "_loanId",
          "type": "uint256"
        }
      ],
      "name": "viewLoan",
      "outputs": [
        {
          "internalType": "uint32",
          "name": "",
          "type": "uint32"
        },
        {
          "internalType": "uint256",
          "name": "",
          "type": "uint256"
        },
        {
          "internalType": "uint256",
          "name": "",
          "type": "uint256"
        },
        {
          "internalType": "bool",
          "name": "",
          "type": "bool"
        }
      ],
      "stateMutability": "view",
      "type": "function"
    },
    {
      "inputs": [
        {
          "internalType": "uint256",
          "name": "_loanId",
          "type": "uint256"
        }
      ],
      "name": "rePay",
      "outputs": [],
      "stateMutability": "nonpayable",
      "type": "function"
    },
    {
      "inputs": [],
      "name": "assignAllNPA",
      "outputs": [],
      "stateMutability": "nonpayable",
      "type": "function"
    },
    {
      "inputs": [
        {
          "internalType": "uint256",
          "name": "_noOffResults",
          "type": "uint256"
        }
      ],
      "name": "listNPA",
      "outputs": [
        {
          "internalType": "uint256[]",
          "name": "",
          "type": "uint256[]"
        }
      ],
      "stateMutability": "view",
      "type": "function"
    },
    {
      "inputs": [
        {
          "internalType": "uint256",
          "name": "_loanId",
          "type": "uint256"
        }
      ],
      "name": "liquidateNPA",
      "outputs": [],
      "stateMutability": "nonpayable",
      "type": "function"
    }
  ],
  "bytecode": "0x608060405234801561001057600080fd5b50336000806101000a81548173ffffffffffffffffffffffffffffffffffffffff021916908373ffffffffffffffffffffffffffffffffffffffff16021790555060008054906101000a900473ffffffffffffffffffffffffffffffffffffffff1673ffffffffffffffffffffffffffffffffffffffff16600073ffffffffffffffffffffffffffffffffffffffff167f342827c97908e5e2f71151c08502a66d44b6f758e3ac2f1de95f02eb95f0a73560405160405180910390a373eb8f08a975ab53e34d8a0330e0d34de942c95926600260006101000a81548173ffffffffffffffffffffffffffffffffffffffff021916908373ffffffffffffffffffffffffffffffffffffffff1602179055506121cb806101306000396000f3fe608060405234801561001057600080fd5b50600436106100a95760003560e01c806366ffb6b41161007157806366ffb6b41461016457806369aed07e1461016e578063893d20e81461018c578063a6f9dae1146101aa578063d028aa62146101c6578063df33d72f146101f9576100a9565b806309dbb5f1146100ae57806329fd461d146100de57806347ccca02146100fa5780634aa4807d146101185780635069dfd114610134575b600080fd5b6100c860048036038101906100c391906117eb565b610215565b6040516100d59190611c5e565b60405180910390f35b6100f860048036038101906100f3919061184e565b61067e565b005b610102610a71565b60405161010f9190611b63565b60405180910390f35b610132600480360381019061012d919061184e565b610a97565b005b61014e6004803603810190610149919061184e565b610f2d565b60405161015b9190611b41565b60405180910390f35b61016c61105b565b005b610176611120565b6040516101839190611cbe565b60405180910390f35b610194611137565b6040516101a19190611a9d565b60405180910390f35b6101c460048036038101906101bf9190611770565b611160565b005b6101e060048036038101906101db919061184e565b6112ab565b6040516101f09493929190611c79565b60405180910390f35b610213600480360381019061020e91906118a0565b611339565b005b60006102228585856113e5565b60006064604660056000888152602001908152602001600020600101546102499190611daa565b6102539190611d79565b905080600260009054906101000a900473ffffffffffffffffffffffffffffffffffffffff1673ffffffffffffffffffffffffffffffffffffffff166370a08231306040518263ffffffff1660e01b81526004016102b19190611a9d565b60206040518083038186803b1580156102c957600080fd5b505afa1580156102dd573d6000803e3d6000fd5b505050506040513d601f19601f820116820180604052508101906103019190611877565b1015610342576040517f08c379a000000000000000000000000000000000000000000000000000000000815260040161033990611b7e565b60405180910390fd5b600160009054906101000a900473ffffffffffffffffffffffffffffffffffffffff1673ffffffffffffffffffffffffffffffffffffffff166342842e0e3330886040518463ffffffff1660e01b81526004016103a193929190611ab8565b600060405180830381600087803b1580156103bb57600080fd5b505af11580156103cf573d6000803e3d6000fd5b50505050600260009054906101000a900473ffffffffffffffffffffffffffffffffffffffff1673ffffffffffffffffffffffffffffffffffffffff1663a9059cbb33836040518363ffffffff1660e01b8152600401610430929190611b18565b602060405180830381600087803b15801561044a57600080fd5b505af115801561045e573d6000803e3d6000fd5b505050506040513d601f19601f8201168201806040525081019061048291906117c2565b506003600081548092919061049690611ed3565b91905055506040518060e001604052803373ffffffffffffffffffffffffffffffffffffffff1681526020014263ffffffff1681526020018463ffffffff168152602001600260149054906101000a900460ff1660ff1681526020018281526020018681526020016001151581525060066000600354815260200190815260200160002060008201518160000160006101000a81548173ffffffffffffffffffffffffffffffffffffffff021916908373ffffffffffffffffffffffffffffffffffffffff16021790555060208201518160000160146101000a81548163ffffffff021916908363ffffffff16021790555060408201518160000160186101000a81548163ffffffff021916908363ffffffff160217905550606082015181600001601c6101000a81548160ff021916908360ff1602179055506080820151816001015560a0820151816002015560c08201518160030160006101000a81548160ff021916908315150217905550905050600060076000600354815260200190815260200160002060006101000a81548160ff0219169083151502179055507f58aaf6fd826d20f9c28a617c8af86aeb6d950a2a3608348c2143d5cebf4aeeb933600354604051610668929190611b18565b60405180910390a1600354915050949350505050565b6007600082815260200190815260200160002060009054906101000a900460ff16806106af57506106ae816115f7565b5b6106ee576040517f08c379a00000000000000000000000000000000000000000000000000000000081526004016106e590611c1e565b60405180910390fd5b60006006600083815260200190815260200160002060000160149054906101000a900463ffffffff16426107229190611e04565b9050600063bbf81e008263ffffffff1660066000868152602001908152602001600020600001601c9054906101000a900460ff1660ff16600660008781526020019081526020016000206001015461077a9190611daa565b6107849190611daa565b61078e9190611d79565b60066000858152602001908152602001600020600101546107af9190611d23565b9050600260009054906101000a900473ffffffffffffffffffffffffffffffffffffffff1673ffffffffffffffffffffffffffffffffffffffff166323b872dd3330846040518463ffffffff1660e01b815260040161081093929190611ab8565b602060405180830381600087803b15801561082a57600080fd5b505af115801561083e573d6000803e3d6000fd5b505050506040513d601f19601f8201168201806040525081019061086291906117c2565b506005600084815260200190815260200160002060000160009054906101000a900473ffffffffffffffffffffffffffffffffffffffff16600160006101000a81548173ffffffffffffffffffffffffffffffffffffffff021916908373ffffffffffffffffffffffffffffffffffffffff160217905550600160009054906101000a900473ffffffffffffffffffffffffffffffffffffffff1673ffffffffffffffffffffffffffffffffffffffff1663a22cb4653060016040518363ffffffff1660e01b8152600401610938929190611aef565b600060405180830381600087803b15801561095257600080fd5b505af1158015610966573d6000803e3d6000fd5b50505050600160009054906101000a900473ffffffffffffffffffffffffffffffffffffffff1673ffffffffffffffffffffffffffffffffffffffff166342842e0e303360066000888152602001908152602001600020600201546040518463ffffffff1660e01b81526004016109df93929190611ab8565b600060405180830381600087803b1580156109f957600080fd5b505af1158015610a0d573d6000803e3d6000fd5b5050505060006006600085815260200190815260200160002060030160006101000a81548160ff02191690831515021790555060006007600085815260200190815260200160002060006101000a81548160ff021916908315150217905550505050565b600160009054906101000a900473ffffffffffffffffffffffffffffffffffffffff1681565b6006600082815260200190815260200160002060000160189054906101000a900463ffffffff1663ffffffff164210610b05576040517f08c379a0000000000000000000000000000000000000000000000000000000008152600401610afc90611b9e565b60405180910390fd5b6006600082815260200190815260200160002060000160009054906101000a900473ffffffffffffffffffffffffffffffffffffffff1673ffffffffffffffffffffffffffffffffffffffff163373ffffffffffffffffffffffffffffffffffffffff1614610b7357600080fd5b6006600082815260200190815260200160002060030160009054906101000a900460ff16610bd6576040517f08c379a0000000000000000000000000000000000000000000000000000000008152600401610bcd90611c3e565b60405180910390fd5b6005600082815260200190815260200160002060000160009054906101000a900473ffffffffffffffffffffffffffffffffffffffff16600160006101000a81548173ffffffffffffffffffffffffffffffffffffffff021916908373ffffffffffffffffffffffffffffffffffffffff16021790555060006006600083815260200190815260200160002060000160149054906101000a900463ffffffff1642610c819190611e04565b9050600063bbf81e008263ffffffff1660066000868152602001908152602001600020600001601c9054906101000a900460ff1660ff166006600087815260200190815260200160002060010154610cd99190611daa565b610ce39190611daa565b610ced9190611d79565b6006600085815260200190815260200160002060010154610d0e9190611d23565b9050600260009054906101000a900473ffffffffffffffffffffffffffffffffffffffff1673ffffffffffffffffffffffffffffffffffffffff166323b872dd3330846040518463ffffffff1660e01b8152600401610d6f93929190611ab8565b602060405180830381600087803b158015610d8957600080fd5b505af1158015610d9d573d6000803e3d6000fd5b505050506040513d601f19601f82011682018060405250810190610dc191906117c2565b50600160009054906101000a900473ffffffffffffffffffffffffffffffffffffffff1673ffffffffffffffffffffffffffffffffffffffff1663a22cb4653060016040518363ffffffff1660e01b8152600401610e20929190611aef565b600060405180830381600087803b158015610e3a57600080fd5b505af1158015610e4e573d6000803e3d6000fd5b50505050600160009054906101000a900473ffffffffffffffffffffffffffffffffffffffff1673ffffffffffffffffffffffffffffffffffffffff166342842e0e303360066000888152602001908152602001600020600201546040518463ffffffff1660e01b8152600401610ec793929190611ab8565b600060405180830381600087803b158015610ee157600080fd5b505af1158015610ef5573d6000803e3d6000fd5b5050505060006006600085815260200190815260200160002060030160006101000a81548160ff021916908315150217905550505050565b60606000808367ffffffffffffffff811115610f72577f4e487b7100000000000000000000000000000000000000000000000000000000600052604160045260246000fd5b604051908082528060200260200182016040528015610fa05781602001602082028036833780820191505090505b5090506000600190505b60035481116110505784831161103d57600115156007600083815260200190815260200160002060009054906101000a900460ff161515141561103c5780828481518110611021577f4e487b7100000000000000000000000000000000000000000000000000000000600052603260045260246000fd5b602002602001018181525050828061103890611ed3565b9350505b5b808061104890611ed3565b915050610faa565b508092505050919050565b600060045490505b60035481116111145760016006600083815260200190815260200160002060030160006101000a81548160ff02191690831515021790551561110157426006600083815260200190815260200160002060000160189054906101000a900463ffffffff1663ffffffff1610156111005760016007600083815260200190815260200160002060006101000a81548160ff0219169083151502179055505b5b808061110c90611ed3565b915050611063565b50600354600481905550565b6000600260149054906101000a900460ff16905090565b60008060009054906101000a900473ffffffffffffffffffffffffffffffffffffffff16905090565b60008054906101000a900473ffffffffffffffffffffffffffffffffffffffff1673ffffffffffffffffffffffffffffffffffffffff163373ffffffffffffffffffffffffffffffffffffffff16146111ee576040517f08c379a00000000000000000000000000000000000000000000000000000000081526004016111e590611bbe565b60405180910390fd5b8073ffffffffffffffffffffffffffffffffffffffff1660008054906101000a900473ffffffffffffffffffffffffffffffffffffffff1673ffffffffffffffffffffffffffffffffffffffff167f342827c97908e5e2f71151c08502a66d44b6f758e3ac2f1de95f02eb95f0a73560405160405180910390a3806000806101000a81548173ffffffffffffffffffffffffffffffffffffffff021916908373ffffffffffffffffffffffffffffffffffffffff16021790555050565b6000806000806006600086815260200190815260200160002060000160189054906101000a900463ffffffff16600660008781526020019081526020016000206001015460066000888152602001908152602001600020600201546006600089815260200190815260200160002060030160009054906101000a900460ff1693509350935093509193509193565b60008054906101000a900473ffffffffffffffffffffffffffffffffffffffff1673ffffffffffffffffffffffffffffffffffffffff163373ffffffffffffffffffffffffffffffffffffffff16146113c7576040517f08c379a00000000000000000000000000000000000000000000000000000000081526004016113be90611bbe565b60405180910390fd5b80600260146101000a81548160ff021916908360ff16021790555050565b82600160006101000a81548173ffffffffffffffffffffffffffffffffffffffff021916908373ffffffffffffffffffffffffffffffffffffffff1602179055503373ffffffffffffffffffffffffffffffffffffffff16600160009054906101000a900473ffffffffffffffffffffffffffffffffffffffff1673ffffffffffffffffffffffffffffffffffffffff16636352211e846040518263ffffffff1660e01b81526004016114989190611c5e565b60206040518083038186803b1580156114b057600080fd5b505afa1580156114c4573d6000803e3d6000fd5b505050506040513d601f19601f820116820180604052508101906114e89190611799565b73ffffffffffffffffffffffffffffffffffffffff161461153e576040517f08c379a000000000000000000000000000000000000000000000000000000000815260040161153590611bfe565b60405180910390fd5b6040518060400160405280600160009054906101000a900473ffffffffffffffffffffffffffffffffffffffff1673ffffffffffffffffffffffffffffffffffffffff168152602001828152506005600084815260200190815260200160002060008201518160000160006101000a81548173ffffffffffffffffffffffffffffffffffffffff021916908373ffffffffffffffffffffffffffffffffffffffff16021790555060208201518160010155905050505050565b60006006600083815260200190815260200160002060030160009054906101000a900460ff1680156116545750426006600084815260200190815260200160002060000160189054906101000a900463ffffffff1663ffffffff16105b611693576040517f08c379a000000000000000000000000000000000000000000000000000000000815260040161168a90611bde565b60405180910390fd5b60016007600084815260200190815260200160002060006101000a81548160ff02191690831515021790555060019050919050565b6000813590506116d78161210b565b92915050565b6000815190506116ec8161210b565b92915050565b60008151905061170181612122565b92915050565b60008135905061171681612139565b92915050565b60008135905061172b81612150565b92915050565b60008151905061174081612150565b92915050565b60008135905061175581612167565b92915050565b60008135905061176a8161217e565b92915050565b60006020828403121561178257600080fd5b6000611790848285016116c8565b91505092915050565b6000602082840312156117ab57600080fd5b60006117b9848285016116dd565b91505092915050565b6000602082840312156117d457600080fd5b60006117e2848285016116f2565b91505092915050565b6000806000806080858703121561180157600080fd5b600061180f87828801611707565b94505060206118208782880161171c565b93505060406118318782880161171c565b925050606061184287828801611746565b91505092959194509250565b60006020828403121561186057600080fd5b600061186e8482850161171c565b91505092915050565b60006020828403121561188957600080fd5b600061189784828501611731565b91505092915050565b6000602082840312156118b257600080fd5b60006118c08482850161175b565b91505092915050565b60006118d58383611a61565b60208301905092915050565b6118ea81611e38565b82525050565b60006118fb82611ce9565b6119058185611d01565b935061191083611cd9565b8060005b8381101561194157815161192888826118c9565b975061193383611cf4565b925050600181019050611914565b5085935050505092915050565b61195781611e4a565b82525050565b61196681611eaf565b82525050565b6000611979602883611d12565b915061198482611f7a565b604082019050919050565b600061199c601d83611d12565b91506119a782611fc9565b602082019050919050565b60006119bf601383611d12565b91506119ca82611ff2565b602082019050919050565b60006119e2601583611d12565b91506119ed8261201b565b602082019050919050565b6000611a05602383611d12565b9150611a1082612044565b604082019050919050565b6000611a28602283611d12565b9150611a3382612093565b604082019050919050565b6000611a4b601d83611d12565b9150611a56826120e2565b602082019050919050565b611a6a81611e88565b82525050565b611a7981611e88565b82525050565b611a8881611e92565b82525050565b611a9781611ea2565b82525050565b6000602082019050611ab260008301846118e1565b92915050565b6000606082019050611acd60008301866118e1565b611ada60208301856118e1565b611ae76040830184611a70565b949350505050565b6000604082019050611b0460008301856118e1565b611b11602083018461194e565b9392505050565b6000604082019050611b2d60008301856118e1565b611b3a6020830184611a70565b9392505050565b60006020820190508181036000830152611b5b81846118f0565b905092915050565b6000602082019050611b78600083018461195d565b92915050565b60006020820190508181036000830152611b978161196c565b9050919050565b60006020820190508181036000830152611bb78161198f565b9050919050565b60006020820190508181036000830152611bd7816119b2565b9050919050565b60006020820190508181036000830152611bf7816119d5565b9050919050565b60006020820190508181036000830152611c17816119f8565b9050919050565b60006020820190508181036000830152611c3781611a1b565b9050919050565b60006020820190508181036000830152611c5781611a3e565b9050919050565b6000602082019050611c736000830184611a70565b92915050565b6000608082019050611c8e6000830187611a7f565b611c9b6020830186611a70565b611ca86040830185611a70565b611cb5606083018461194e565b95945050505050565b6000602082019050611cd36000830184611a8e565b92915050565b6000819050602082019050919050565b600081519050919050565b6000602082019050919050565b600082825260208201905092915050565b600082825260208201905092915050565b6000611d2e82611e88565b9150611d3983611e88565b9250827fffffffffffffffffffffffffffffffffffffffffffffffffffffffffffffffff03821115611d6e57611d6d611f1c565b5b828201905092915050565b6000611d8482611e88565b9150611d8f83611e88565b925082611d9f57611d9e611f4b565b5b828204905092915050565b6000611db582611e88565b9150611dc083611e88565b9250817fffffffffffffffffffffffffffffffffffffffffffffffffffffffffffffffff0483118215151615611df957611df8611f1c565b5b828202905092915050565b6000611e0f82611e92565b9150611e1a83611e92565b925082821015611e2d57611e2c611f1c565b5b828203905092915050565b6000611e4382611e68565b9050919050565b60008115159050919050565b6000611e6182611e38565b9050919050565b600073ffffffffffffffffffffffffffffffffffffffff82169050919050565b6000819050919050565b600063ffffffff82169050919050565b600060ff82169050919050565b6000611eba82611ec1565b9050919050565b6000611ecc82611e68565b9050919050565b6000611ede82611e88565b91507fffffffffffffffffffffffffffffffffffffffffffffffffffffffffffffffff821415611f1157611f10611f1c565b5b600182019050919050565b7f4e487b7100000000000000000000000000000000000000000000000000000000600052601160045260246000fd5b7f4e487b7100000000000000000000000000000000000000000000000000000000600052601260045260246000fd5b7f4572726f72203a3a204e6f7420656e6f7567682062616c616e6365205553444360008201527f20746f206c656e64000000000000000000000000000000000000000000000000602082015250565b7f4572726f723a2052657061796d656e742074696d652065787069726564000000600082015250565b7f43616c6c6572206973206e6f74206f776e657200000000000000000000000000600082015250565b7f54686973206973206e6f742061204e5041207965740000000000000000000000600082015250565b7f4f6e6c79206f776e6572206f66204e46542063616e20636f6c6c61746572616c60008201527f697a650000000000000000000000000000000000000000000000000000000000602082015250565b7f54686973206973206e6f742061204e6f6e20506572666f726d696e672041737360008201527f6574000000000000000000000000000000000000000000000000000000000000602082015250565b7f54686973206c6f616e206973206e6f206c6f6e67657220616374697665000000600082015250565b61211481611e38565b811461211f57600080fd5b50565b61212b81611e4a565b811461213657600080fd5b50565b61214281611e56565b811461214d57600080fd5b50565b61215981611e88565b811461216457600080fd5b50565b61217081611e92565b811461217b57600080fd5b50565b61218781611ea2565b811461219257600080fd5b5056fea2646970667358221220c58297ec792029b22c1f54bba9b410ef9f38e0cdef2e25f0f6977c3b0a5071a764736f6c63430008040033",
  "immutableReferences": {},
  "source": "//SPDX-License-Identifier:MIT\r\npragma solidity 0.8.4;\r\n\r\ninterface IERC165 {\r\n    function supportsInterface(bytes4 interfaceId) external view returns (bool);\r\n}\r\ninterface IERC721 is IERC165 {\r\n    event Transfer(address indexed from, address indexed to, uint256 indexed tokenId);\r\n    event Approval(address indexed owner, address indexed approved, uint256 indexed tokenId);\r\n    event ApprovalForAll(address indexed owner, address indexed operator, bool approved);\r\n    function balanceOf(address owner) external view returns (uint256 balance);\r\n    function ownerOf(uint256 tokenId) external view returns (address owner);\r\n    function safeTransferFrom(\r\n        address from,\r\n        address to,\r\n        uint256 tokenId,\r\n        bytes calldata data\r\n    ) external;\r\n    function safeTransferFrom(\r\n        address from,\r\n        address to,\r\n        uint256 tokenId\r\n    ) external;\r\n    function transferFrom(\r\n        address from,\r\n        address to,\r\n        uint256 tokenId\r\n    ) external;\r\n    function approve(address to, uint256 tokenId) external;\r\n    function setApprovalForAll(address operator, bool _approved) external;\r\n    function getApproved(uint256 tokenId) external view returns (address operator);\r\n    function isApprovedForAll(address owner, address operator) external view returns (bool);\r\n}\r\ninterface IERC20 {\r\n    event Transfer(address indexed from, address indexed to, uint256 value);\r\n    event Approval(address indexed owner, address indexed spender, uint256 value);\r\n    function totalSupply() external view returns (uint256);\r\n    function balanceOf(address account) external view returns (uint256);\r\n    function transfer(address to, uint256 amount) external returns (bool);\r\n    function allowance(address owner, address spender) external view returns (uint256);\r\n    function approve(address spender, uint256 amount) external returns (bool);\r\n    function transferFrom(\r\n        address from,\r\n        address to,\r\n        uint256 amount\r\n    ) external returns (bool);\r\n}\r\ncontract Owner {\r\n    address private owner;\r\n    event OwnerSet(address indexed oldOwner, address indexed newOwner);\r\n    modifier isOwner() {\r\n        require(msg.sender == owner, \"Caller is not owner\");\r\n        _;\r\n    }\r\n    constructor() {\r\n        owner = msg.sender; // 'msg.sender' is sender of current call, contract deployer for a constructor\r\n        emit OwnerSet(address(0), owner);\r\n    }\r\n    function changeOwner(address newOwner) public isOwner {\r\n        emit OwnerSet(owner, newOwner);\r\n        owner = newOwner;\r\n    }\r\n    function getOwner() external view returns (address) {\r\n        return owner;\r\n    }\r\n}\r\ncontract LendMyNFT is Owner{\r\n\r\n    IERC721 public nft;\r\n    IERC20 usdc;\r\n\r\n    constructor () {\r\n        usdc = IERC20(0xeb8f08a975Ab53E34D8a0330E0D34de942C95926);\r\n\r\n    }\r\n    uint8 interest;    \r\n    uint256 loanId;\r\n    uint256 lastCheckedId;\r\n    mapping (uint256 => Collateral) stake;  // tokenid to Collateral\r\n    mapping (uint256 => Loan) loans;    // loanId to Loan\r\n    mapping(uint256 => bool) npa;   // loanId to overdue status\r\n    event Loans(address Borrower, uint256 LoanId);\r\n    struct Collateral {\r\n        IERC721 nftAddress;\r\n        uint256 price ; // in wei\r\n\r\n    }\r\n    struct Loan {\r\n        address borrower;\r\n        uint32 startTime;\r\n        uint32 endTime;\r\n        uint8 rate; // per annum\r\n        uint256 principal;\r\n        uint256 tokenId;\r\n        bool isActive;\r\n        \r\n    }\r\n    function setInterestRate(uint8 _rate) public isOwner {\r\n        interest = _rate;\r\n    }\r\n    function viewInterestRate() public view returns(uint8){\r\n        return interest;\r\n    }\r\n    function _generateCollateral(IERC721 _nft, uint256 _tokenId, uint256 _price) internal {\r\n        nft = IERC721(_nft);\r\n        require(nft.ownerOf(_tokenId) == msg.sender, \"Only owner of NFT can collateralize\");\r\n        stake[_tokenId] = Collateral( nft,_price);\r\n    }\r\n    function borrow (IERC721 _nft,uint256 _tokenId, uint256 _price, uint32 _endTime) public returns(uint256 LoanId) {\r\n        _generateCollateral(_nft,_tokenId,_price);\r\n        uint256 weiAmount = stake[_tokenId].price *70/100;\r\n        require(usdc.balanceOf(address(this))>=weiAmount, \"Error :: Not enough balance USDC to lend\");\r\n        nft.safeTransferFrom(msg.sender,address(this),_tokenId);\r\n        usdc.transfer(msg.sender,weiAmount);\r\n        loanId++;\r\n        loans[loanId] = Loan(msg.sender,uint32(block.timestamp),_endTime,interest,weiAmount,_tokenId,true);\r\n        npa[loanId] = false;\r\n        emit Loans(msg.sender,loanId);\r\n        return loanId;\r\n    }\r\n    function viewLoan(uint256 _loanId)public view returns(uint32,uint256,uint256,bool){\r\n        return (loans[_loanId].endTime,loans[_loanId].principal,loans[_loanId].tokenId,loans[_loanId].isActive );\r\n    }\r\n    function rePay(uint256 _loanId) public {\r\n        require(block.timestamp<loans[_loanId].endTime, \"Error: Repayment time expired\");\r\n        require(msg.sender == loans[_loanId].borrower);\r\n        require(loans[_loanId].isActive, \"This loan is no longer active\");\r\n        nft = stake[_loanId].nftAddress;\r\n        uint32 elapsedTime = uint32(block.timestamp) - loans[_loanId].startTime;\r\n        uint256 rePayAmount = loans[_loanId].principal + loans[_loanId].principal*loans[_loanId].rate * elapsedTime/(60*60*24*365*100);\r\n        usdc.transferFrom(msg.sender, address(this), rePayAmount);\r\n        nft.setApprovalForAll(address(this),true);\r\n        nft.safeTransferFrom(address(this), msg.sender, loans[_loanId].tokenId);\r\n        loans[_loanId].isActive = false;\r\n    }\r\n    function _assignAsNPA(uint256 _loanId) internal returns(bool) {\r\n        require(loans[_loanId].isActive && loans[_loanId].endTime<block.timestamp, \"This is not a NPA yet\");\r\n        npa[_loanId] = true;\r\n        return true;\r\n    }\r\n    function assignAllNPA() public {\r\n        \r\n        for(uint256 i = lastCheckedId; i<=loanId;i++){\r\n            if(loans[i].isActive = true){\r\n                if(loans[i].endTime<block.timestamp){\r\n                npa[i] = true;\r\n                }\r\n            }\r\n            \r\n        }\r\n        lastCheckedId = loanId;\r\n    }\r\n    function listNPA(uint256 _noOffResults) public view returns(uint256[] memory){\r\n        uint k;\r\n        uint256[] memory npas = new uint256[](_noOffResults);\r\n        for(uint i=1;i<=loanId;i++){\r\n            if(k<=_noOffResults){\r\n                if(npa[i] == true){\r\n                npas[k] = i;\r\n                k++;\r\n                }\r\n            }\r\n            \r\n        }\r\n        return npas;\r\n    }\r\n    function liquidateNPA(uint256 _loanId) public {\r\n        require(npa[_loanId] || _assignAsNPA(_loanId), \"This is not a Non Performing Asset\" );\r\n        uint32 elapsedTime = uint32(block.timestamp) - loans[_loanId].startTime;\r\n        uint256 rePayAmount = loans[_loanId].principal + loans[_loanId].principal*loans[_loanId].rate * elapsedTime/(60*60*24*365*100);\r\n        usdc.transferFrom(msg.sender, address(this), rePayAmount);\r\n        nft = stake[_loanId].nftAddress;\r\n        nft.setApprovalForAll(address(this),true);\r\n        nft.safeTransferFrom(address(this), msg.sender, loans[_loanId].tokenId);\r\n        loans[_loanId].isActive = false;\r\n        npa[_loanId] = false;\r\n    }\r\n}",
  "sourcePath": "C:\\Users\\admin\\OneDrive\\Documents\\lendMyNFT\\contracts\\lendMyNFT.sol",
  "compiler": {
    "name": "solc",
    "version": "0.8.4+commit.c7e474f2.Emscripten.clang"
  },
  "schemaVersion": "3.1.0",
  "updatedAt": "2022-05-04T15:38:42.774Z",
  "devdoc": {
    "kind": "dev",
    "methods": {},
    "version": 1
  },
  "userdoc": {
    "kind": "user",
    "methods": {},
    "version": 1
  }
}